{
  "address": "0x9fE46736679d2D9a65F0992F2272dE9f3c7fa6e0",
  "abi": [
    {
      "inputs": [
        {
          "internalType": "address",
          "name": "vrfCoordinator",
          "type": "address"
        },
        {
          "internalType": "address",
          "name": "link",
          "type": "address"
        },
        {
          "internalType": "bytes32",
          "name": "_keyhash",
          "type": "bytes32"
        },
        {
          "internalType": "uint256",
          "name": "_fee",
          "type": "uint256"
        }
      ],
      "stateMutability": "nonpayable",
      "type": "constructor"
    },
    {
      "anonymous": false,
      "inputs": [
        {
          "indexed": false,
          "internalType": "uint256",
          "name": "",
          "type": "uint256"
        },
        {
          "indexed": false,
          "internalType": "uint256",
          "name": "",
          "type": "uint256"
        },
        {
          "indexed": false,
          "internalType": "uint256",
          "name": "",
          "type": "uint256"
        },
        {
          "indexed": false,
          "internalType": "uint256",
          "name": "",
          "type": "uint256"
        }
      ],
      "name": "LotteryCreated",
      "type": "event"
    },
    {
      "anonymous": false,
      "inputs": [
        {
          "indexed": false,
          "internalType": "uint256",
          "name": "",
          "type": "uint256"
        },
        {
          "indexed": false,
          "internalType": "address",
          "name": "",
          "type": "address"
        }
      ],
      "name": "LotteryFinished",
      "type": "event"
    },
    {
      "anonymous": false,
      "inputs": [
        {
          "indexed": false,
          "internalType": "uint256",
          "name": "",
          "type": "uint256"
        },
        {
          "indexed": false,
          "internalType": "uint256",
          "name": "",
          "type": "uint256"
        }
      ],
      "name": "PrizeIncreased",
      "type": "event"
    },
    {
      "anonymous": false,
      "inputs": [
        {
          "indexed": false,
          "internalType": "bytes32",
          "name": "",
          "type": "bytes32"
        },
        {
          "indexed": false,
          "internalType": "uint256",
          "name": "",
          "type": "uint256"
        }
      ],
      "name": "RandomnessRequested",
      "type": "event"
    },
    {
      "anonymous": false,
      "inputs": [
        {
          "indexed": false,
          "internalType": "bytes32",
          "name": "",
          "type": "bytes32"
        },
        {
          "indexed": false,
          "internalType": "uint256",
          "name": "",
          "type": "uint256"
        },
        {
          "indexed": false,
          "internalType": "address",
          "name": "",
          "type": "address"
        }
      ],
      "name": "WinnerDeclared",
      "type": "event"
    },
    {
      "inputs": [
        {
          "internalType": "uint256",
          "name": "_ticketPrice",
          "type": "uint256"
        },
        {
          "internalType": "uint256",
          "name": "_seconds",
          "type": "uint256"
        }
      ],
      "name": "createLottery",
      "outputs": [],
      "stateMutability": "payable",
      "type": "function"
    },
    {
      "inputs": [
        {
          "internalType": "uint256",
          "name": "_lotteryId",
          "type": "uint256"
        }
      ],
      "name": "declareWinner",
      "outputs": [],
      "stateMutability": "nonpayable",
      "type": "function"
    },
    {
      "inputs": [],
      "name": "getLotteries",
      "outputs": [
        {
          "components": [
            {
              "internalType": "uint256",
              "name": "lotteryId",
              "type": "uint256"
            },
            {
              "internalType": "address[]",
              "name": "participants",
              "type": "address[]"
            },
            {
              "internalType": "uint256",
              "name": "ticketPrice",
              "type": "uint256"
            },
            {
              "internalType": "uint256",
              "name": "prize",
              "type": "uint256"
            },
            {
              "internalType": "address",
              "name": "winner",
              "type": "address"
            },
            {
              "internalType": "bool",
              "name": "isFinished",
              "type": "bool"
            },
            {
              "internalType": "uint256",
              "name": "endDate",
              "type": "uint256"
            }
          ],
          "internalType": "struct LotteryGame.Lottery[]",
          "name": "",
          "type": "tuple[]"
        }
      ],
      "stateMutability": "view",
      "type": "function"
    },
    {
      "inputs": [
        {
          "internalType": "uint256",
          "name": "_lotteryId",
          "type": "uint256"
        }
      ],
      "name": "getLottery",
      "outputs": [
        {
          "components": [
            {
              "internalType": "uint256",
              "name": "lotteryId",
              "type": "uint256"
            },
            {
              "internalType": "address[]",
              "name": "participants",
              "type": "address[]"
            },
            {
              "internalType": "uint256",
              "name": "ticketPrice",
              "type": "uint256"
            },
            {
              "internalType": "uint256",
              "name": "prize",
              "type": "uint256"
            },
            {
              "internalType": "address",
              "name": "winner",
              "type": "address"
            },
            {
              "internalType": "bool",
              "name": "isFinished",
              "type": "bool"
            },
            {
              "internalType": "uint256",
              "name": "endDate",
              "type": "uint256"
            }
          ],
          "internalType": "struct LotteryGame.Lottery",
          "name": "",
          "type": "tuple"
        }
      ],
      "stateMutability": "view",
      "type": "function"
    },
    {
      "inputs": [],
      "name": "getLotteryCount",
      "outputs": [
        {
          "internalType": "uint256",
          "name": "",
          "type": "uint256"
        }
      ],
      "stateMutability": "view",
      "type": "function"
    },
    {
      "inputs": [
        {
          "internalType": "uint256",
          "name": "_lotteryId",
          "type": "uint256"
        }
      ],
      "name": "participate",
      "outputs": [],
      "stateMutability": "payable",
      "type": "function"
    },
    {
      "inputs": [
        {
          "internalType": "uint256",
          "name": "",
          "type": "uint256"
        }
      ],
      "name": "playersCount",
      "outputs": [
        {
          "internalType": "uint256",
          "name": "",
          "type": "uint256"
        }
      ],
      "stateMutability": "view",
      "type": "function"
    },
    {
      "inputs": [
        {
          "internalType": "uint256",
          "name": "",
          "type": "uint256"
        },
        {
          "internalType": "address",
          "name": "",
          "type": "address"
        }
      ],
      "name": "ppplayer",
      "outputs": [
        {
          "internalType": "uint256",
          "name": "",
          "type": "uint256"
        }
      ],
      "stateMutability": "view",
      "type": "function"
    },
    {
      "inputs": [
        {
          "internalType": "bytes32",
          "name": "requestId",
          "type": "bytes32"
        },
        {
          "internalType": "uint256",
          "name": "randomness",
          "type": "uint256"
        }
      ],
      "name": "rawFulfillRandomness",
      "outputs": [],
      "stateMutability": "nonpayable",
      "type": "function"
    }
  ],
  "transactionHash": "0x05609f3d2708bcb9f8a536b37725135e71967c8a8e08deb07cf2421a43fbaaec",
  "args": [
    "0xe7f1725E7734CE288F8367e1Bb143E90bb3F0512",
    "0x5FbDB2315678afecb367f032d93F642f64180aa3",
    "0x6c3699283bda56ad74f6b855546325b68d482e983852a7a82979cc4807b641f4",
    "100000000000000000"
  ],
  "numDeployments": 1,
  "solcInputHash": "c45ccb8ff31c82b10ca01428c689db6a",
  "bytecode": "0x60c06040523480156200001157600080fd5b506040516200287238038062002872833981810160405281019062000037919062000147565b83838173ffffffffffffffffffffffffffffffffffffffff1660a08173ffffffffffffffffffffffffffffffffffffffff1660601b815250508073ffffffffffffffffffffffffffffffffffffffff1660808173ffffffffffffffffffffffffffffffffffffffff1660601b815250505050816006819055508060078190555033600860006101000a81548173ffffffffffffffffffffffffffffffffffffffff021916908373ffffffffffffffffffffffffffffffffffffffff1602179055505050505062000254565b600081519050620001138162000206565b92915050565b6000815190506200012a8162000220565b92915050565b60008151905062000141816200023a565b92915050565b6000806000806080858703121562000164576200016362000201565b5b6000620001748782880162000102565b9450506020620001878782880162000102565b93505060406200019a8782880162000119565b9250506060620001ad8782880162000130565b91505092959194509250565b6000620001c682620001d7565b9050919050565b6000819050919050565b600073ffffffffffffffffffffffffffffffffffffffff82169050919050565b6000819050919050565b600080fd5b6200021181620001b9565b81146200021d57600080fd5b50565b6200022b81620001cd565b81146200023757600080fd5b50565b6200024581620001f7565b81146200025157600080fd5b50565b60805160601c60a05160601c6125e46200028e60003960008181610c0901526110ad0152600081816106d4015261107101526125e46000f3fe6080604052600436106100855760003560e01c806392e845f61161005957806392e845f61461013757806394985ddd14610174578063bcc82ec41461019d578063bf205a1a146101c8578063fe35804e1461020557610085565b8062c2943c1461008a5780632f9aa1fe146100b357806367a2cc6d146100de578063845c93061461011b575b600080fd5b34801561009657600080fd5b506100b160048036038101906100ac9190611684565b610221565b005b3480156100bf57600080fd5b506100c8610826565b6040516100d59190611edd565b60405180910390f35b3480156100ea57600080fd5b50610105600480360381019061010091906116de565b610837565b6040516101129190611edd565b60405180910390f35b61013560048036038101906101309190611684565b61085c565b005b34801561014357600080fd5b5061015e60048036038101906101599190611684565b610ab3565b60405161016b9190611ebb565b60405180910390f35b34801561018057600080fd5b5061019b60048036038101906101969190611644565b610c07565b005b3480156101a957600080fd5b506101b2610ca3565b6040516101bf9190611c94565b60405180910390f35b3480156101d457600080fd5b506101ef60048036038101906101ea9190611684565b610d5c565b6040516101fc9190611edd565b60405180910390f35b61021f600480360381019061021a919061171e565b610d74565b005b600860009054906101000a900473ffffffffffffffffffffffffffffffffffffffff1673ffffffffffffffffffffffffffffffffffffffff163373ffffffffffffffffffffffffffffffffffffffff16146102b1576040517f08c379a00000000000000000000000000000000000000000000000000000000081526004016102a890611e5b565b60405180910390fd5b60006002600083815260200190815260200160002090508060050154421161030e576040517f08c379a000000000000000000000000000000000000000000000000000000000815260040161030590611dfb565b60405180910390fd5b8060040160149054906101000a900460ff1615610360576040517f08c379a000000000000000000000000000000000000000000000000000000000815260040161035790611d5b565b60405180910390fd5b60018160040160146101000a81548160ff0219169083151502179055506000600560008481526020019081526020016000205414156104435760008160040160006101000a81548173ffffffffffffffffffffffffffffffffffffffff021916908373ffffffffffffffffffffffffffffffffffffffff1602179055507fcbc78e3934c9572c47642ae467da1c9774690f27e51eb9d3db3b5f83958db69081600001548260040160009054906101000a900473ffffffffffffffffffffffffffffffffffffffff16604051610436929190611ef8565b60405180910390a1610822565b6001600560008481526020019081526020016000205414156106cf57600073ffffffffffffffffffffffffffffffffffffffff168160010160008154811061048e5761048d61225a565b5b9060005260206000200160009054906101000a900473ffffffffffffffffffffffffffffffffffffffff1673ffffffffffffffffffffffffffffffffffffffff161415610510576040517f08c379a000000000000000000000000000000000000000000000000000000000815260040161050790611dbb565b60405180910390fd5b806001016000815481106105275761052661225a565b5b9060005260206000200160009054906101000a900473ffffffffffffffffffffffffffffffffffffffff168160040160006101000a81548173ffffffffffffffffffffffffffffffffffffffff021916908373ffffffffffffffffffffffffffffffffffffffff16021790555060008160040160009054906101000a900473ffffffffffffffffffffffffffffffffffffffff1673ffffffffffffffffffffffffffffffffffffffff1682600301546040516105e290611c26565b60006040518083038185875af1925050503d806000811461061f576040519150601f19603f3d011682016040523d82523d6000602084013e610624565b606091505b5050905080610668576040517f08c379a000000000000000000000000000000000000000000000000000000000815260040161065f90611d7b565b60405180910390fd5b7fcbc78e3934c9572c47642ae467da1c9774690f27e51eb9d3db3b5f83958db69082600001548360040160009054906101000a900473ffffffffffffffffffffffffffffffffffffffff166040516106c1929190611ef8565b60405180910390a150610821565b6007547f000000000000000000000000000000000000000000000000000000000000000073ffffffffffffffffffffffffffffffffffffffff166370a08231306040518263ffffffff1660e01b815260040161072b9190611c3b565b60206040518083038186803b15801561074357600080fd5b505afa158015610757573d6000803e3d6000fd5b505050506040513d601f19601f8201168201806040525081019061077b91906116b1565b10156107bc576040517f08c379a00000000000000000000000000000000000000000000000000000000081526004016107b390611ddb565b60405180910390fd5b60006107cc60065460075461106d565b90508260036000838152602001908152602001600020819055507f49cdaa45e000eb9a419ae3b028f7f7bec2179153ebe33293f3128664284213268184604051610817929190611cb6565b60405180910390a1505b5b5050565b600061083260016111cc565b905090565b6004602052816000526040600020602052806000526040600020600091509150505481565b6000600260008381526020019081526020016000209050806005015442106108b9576040517f08c379a00000000000000000000000000000000000000000000000000000000081526004016108b090611e3b565b60405180910390fd5b348160020154146108ff576040517f08c379a00000000000000000000000000000000000000000000000000000000081526004016108f690611e1b565b60405180910390fd5b80600101339080600181540180825580915050600190039060005260206000200160009091909190916101000a81548173ffffffffffffffffffffffffffffffffffffffff021916908373ffffffffffffffffffffffffffffffffffffffff160217905550348160030160008282546109789190612039565b9250508190555060006004600084815260200190815260200160002060003373ffffffffffffffffffffffffffffffffffffffff1673ffffffffffffffffffffffffffffffffffffffff1681526020019081526020016000205490506000811415610a0757600560008481526020019081526020016000206000815480929190610a019061216e565b91905055505b6004600084815260200190815260200160002060003373ffffffffffffffffffffffffffffffffffffffff1673ffffffffffffffffffffffffffffffffffffffff1681526020019081526020016000206000815480929190610a689061216e565b91905055507f3460c8d6fb8c7c026376232c36402d8f009c3bacafe6ff1f69dfce59fa9c096782600001548360030154604051610aa6929190611f21565b60405180910390a1505050565b610abb6114b2565b600260008381526020019081526020016000206040518060e00160405290816000820154815260200160018201805480602002602001604051908101604052809291908181526020018280548015610b6857602002820191906000526020600020905b8160009054906101000a900473ffffffffffffffffffffffffffffffffffffffff1673ffffffffffffffffffffffffffffffffffffffff1681526020019060010190808311610b1e575b5050505050815260200160028201548152602001600382015481526020016004820160009054906101000a900473ffffffffffffffffffffffffffffffffffffffff1673ffffffffffffffffffffffffffffffffffffffff1673ffffffffffffffffffffffffffffffffffffffff1681526020016004820160149054906101000a900460ff161515151581526020016005820154815250509050919050565b7f000000000000000000000000000000000000000000000000000000000000000073ffffffffffffffffffffffffffffffffffffffff163373ffffffffffffffffffffffffffffffffffffffff1614610c95576040517f08c379a0000000000000000000000000000000000000000000000000000000008152600401610c8c90611e7b565b60405180910390fd5b610c9f82826111da565b5050565b60606000610cb160016111cc565b67ffffffffffffffff811115610cca57610cc9612289565b5b604051908082528060200260200182016040528015610d0357816020015b610cf06114b2565b815260200190600190039081610ce85790505b50905060005b610d1360016111cc565b811015610d5457610d2381610ab3565b828281518110610d3657610d3561225a565b5b60200260200101819052508080610d4c9061216e565b915050610d09565b508091505090565b60056020528060005260406000206000915090505481565b600860009054906101000a900473ffffffffffffffffffffffffffffffffffffffff1673ffffffffffffffffffffffffffffffffffffffff163373ffffffffffffffffffffffffffffffffffffffff1614610e04576040517f08c379a0000000000000000000000000000000000000000000000000000000008152600401610dfb90611e5b565b60405180910390fd5b60008211610e47576040517f08c379a0000000000000000000000000000000000000000000000000000000008152600401610e3e90611e9b565b60405180910390fd5b60008111610e8a576040517f08c379a0000000000000000000000000000000000000000000000000000000008152600401610e8190611d9b565b60405180910390fd5b60006040518060e00160405280610ea160016111cc565b8152602001600067ffffffffffffffff811115610ec157610ec0612289565b5b604051908082528060200260200182016040528015610eef5781602001602082028036833780820191505090505b50815260200184815260200160008152602001600073ffffffffffffffffffffffffffffffffffffffff168152602001600015158152602001600184610f35919061208f565b42610f409190612039565b81525090508060026000610f5460016111cc565b8152602001908152602001600020600082015181600001556020820151816001019080519060200190610f88929190611507565b50604082015181600201556060820151816003015560808201518160040160006101000a81548173ffffffffffffffffffffffffffffffffffffffff021916908373ffffffffffffffffffffffffffffffffffffffff16021790555060a08201518160040160146101000a81548160ff02191690831515021790555060c0820151816005015590505061101b6001611417565b7f68b3cc7239912b7f66b9e2f9d93955382d1082297c9e6347beb37217f081650e8160000151826040015183606001518460c001516040516110609493929190611f4a565b60405180910390a1505050565b60007f000000000000000000000000000000000000000000000000000000000000000073ffffffffffffffffffffffffffffffffffffffff16634000aea07f0000000000000000000000000000000000000000000000000000000000000000848660006040516020016110e1929190611cb6565b6040516020818303038152906040526040518463ffffffff1660e01b815260040161110e93929190611c56565b602060405180830381600087803b15801561112857600080fd5b505af115801561113c573d6000803e3d6000fd5b505050506040513d601f19601f820116820180604052508101906111609190611617565b506000611182846000306000808981526020019081526020016000205461142d565b90506001600080868152602001908152602001600020546111a39190612039565b600080868152602001908152602001600020819055506111c38482611469565b91505092915050565b600081600001549050919050565b6000600360008481526020019081526020016000205490506000600260008381526020019081526020016000209050600061122582600101805490508561149c90919063ffffffff16565b905081600101818154811061123d5761123c61225a565b5b9060005260206000200160009054906101000a900473ffffffffffffffffffffffffffffffffffffffff168260040160006101000a81548173ffffffffffffffffffffffffffffffffffffffff021916908373ffffffffffffffffffffffffffffffffffffffff1602179055506003600086815260200190815260200160002060009055600560008481526020019081526020016000206000905560008260040160009054906101000a900473ffffffffffffffffffffffffffffffffffffffff1673ffffffffffffffffffffffffffffffffffffffff16836003015460405161132690611c26565b60006040518083038185875af1925050503d8060008114611363576040519150601f19603f3d011682016040523d82523d6000602084013e611368565b606091505b50509050806113ac576040517f08c379a00000000000000000000000000000000000000000000000000000000081526004016113a390611d7b565b60405180910390fd5b7fde0c090c9d4a201b2d76010af69467e968ab380b646781fa3c78ec193892a1f98684600001548560040160009054906101000a900473ffffffffffffffffffffffffffffffffffffffff1660405161140793929190611cdf565b60405180910390a1505050505050565b6001816000016000828254019250508190555050565b6000848484846040516020016114469493929190611d16565b6040516020818303038152906040528051906020012060001c9050949350505050565b6000828260405160200161147e929190611bfa565b60405160208183030381529060405280519060200120905092915050565b600081836114aa91906121cb565b905092915050565b6040518060e0016040528060008152602001606081526020016000815260200160008152602001600073ffffffffffffffffffffffffffffffffffffffff168152602001600015158152602001600081525090565b828054828255906000526020600020908101928215611580579160200282015b8281111561157f5782518260006101000a81548173ffffffffffffffffffffffffffffffffffffffff021916908373ffffffffffffffffffffffffffffffffffffffff16021790555091602001919060010190611527565b5b50905061158d9190611591565b5090565b5b808211156115aa576000816000905550600101611592565b5090565b6000813590506115bd81612552565b92915050565b6000815190506115d281612569565b92915050565b6000813590506115e781612580565b92915050565b6000813590506115fc81612597565b92915050565b60008151905061161181612597565b92915050565b60006020828403121561162d5761162c6122b8565b5b600061163b848285016115c3565b91505092915050565b6000806040838503121561165b5761165a6122b8565b5b6000611669858286016115d8565b925050602061167a858286016115ed565b9150509250929050565b60006020828403121561169a576116996122b8565b5b60006116a8848285016115ed565b91505092915050565b6000602082840312156116c7576116c66122b8565b5b60006116d584828501611602565b91505092915050565b600080604083850312156116f5576116f46122b8565b5b6000611703858286016115ed565b9250506020611714858286016115ae565b9150509250929050565b60008060408385031215611735576117346122b8565b5b6000611743858286016115ed565b9250506020611754858286016115ed565b9150509250929050565b600061176a838361178a565b60208301905092915050565b60006117828383611a8d565b905092915050565b611793816120e9565b82525050565b6117a2816120e9565b82525050565b60006117b382611faf565b6117bd8185611fea565b93506117c883611f8f565b8060005b838110156117f95781516117e0888261175e565b97506117eb83611fd0565b9250506001810190506117cc565b5085935050505092915050565b600061181182611fba565b61181b8185611ffb565b93508360208202850161182d85611f9f565b8060005b85811015611869578484038952815161184a8582611776565b945061185583611fdd565b925060208a01995050600181019050611831565b50829750879550505050505092915050565b611884816120fb565b82525050565b61189381612107565b82525050565b6118aa6118a582612107565b6121b7565b82525050565b60006118bb82611fc5565b6118c5818561200c565b93506118d581856020860161213b565b6118de816122bd565b840191505092915050565b60006118f6602583612028565b9150611901826122ce565b604082019050919050565b6000611919600f83612028565b91506119248261231d565b602082019050919050565b600061193c602383612028565b915061194782612346565b604082019050919050565b600061195f602f83612028565b915061196a82612395565b604082019050919050565b6000611982600f83612028565b915061198d826123e4565b602082019050919050565b60006119a5601783612028565b91506119b08261240d565b602082019050919050565b60006119c8602383612028565b91506119d382612436565b604082019050919050565b60006119eb601f83612028565b91506119f682612485565b602082019050919050565b6000611a0e601683612028565b9150611a19826124ae565b602082019050919050565b6000611a31601f83612028565b9150611a3c826124d7565b602082019050919050565b6000611a5460008361201d565b9150611a5f82612500565b600082019050919050565b6000611a77602383612028565b9150611a8282612503565b604082019050919050565b600060e083016000830151611aa56000860182611bc5565b5060208301518482036020860152611abd82826117a8565b9150506040830151611ad26040860182611bc5565b506060830151611ae56060860182611bc5565b506080830151611af8608086018261178a565b5060a0830151611b0b60a086018261187b565b5060c0830151611b1e60c0860182611bc5565b508091505092915050565b600060e083016000830151611b416000860182611bc5565b5060208301518482036020860152611b5982826117a8565b9150506040830151611b6e6040860182611bc5565b506060830151611b816060860182611bc5565b506080830151611b94608086018261178a565b5060a0830151611ba760a086018261187b565b5060c0830151611bba60c0860182611bc5565b508091505092915050565b611bce81612131565b82525050565b611bdd81612131565b82525050565b611bf4611bef82612131565b6121c1565b82525050565b6000611c068285611899565b602082019150611c168284611be3565b6020820191508190509392505050565b6000611c3182611a47565b9150819050919050565b6000602082019050611c506000830184611799565b92915050565b6000606082019050611c6b6000830186611799565b611c786020830185611bd4565b8181036040830152611c8a81846118b0565b9050949350505050565b60006020820190508181036000830152611cae8184611806565b905092915050565b6000604082019050611ccb600083018561188a565b611cd86020830184611bd4565b9392505050565b6000606082019050611cf4600083018661188a565b611d016020830185611bd4565b611d0e6040830184611799565b949350505050565b6000608082019050611d2b600083018761188a565b611d386020830186611bd4565b611d456040830185611799565b611d526060830184611bd4565b95945050505050565b60006020820190508181036000830152611d74816118e9565b9050919050565b60006020820190508181036000830152611d948161190c565b9050919050565b60006020820190508181036000830152611db48161192f565b9050919050565b60006020820190508181036000830152611dd481611952565b9050919050565b60006020820190508181036000830152611df481611975565b9050919050565b60006020820190508181036000830152611e1481611998565b9050919050565b60006020820190508181036000830152611e34816119bb565b9050919050565b60006020820190508181036000830152611e54816119de565b9050919050565b60006020820190508181036000830152611e7481611a01565b9050919050565b60006020820190508181036000830152611e9481611a24565b9050919050565b60006020820190508181036000830152611eb481611a6a565b9050919050565b60006020820190508181036000830152611ed58184611b29565b905092915050565b6000602082019050611ef26000830184611bd4565b92915050565b6000604082019050611f0d6000830185611bd4565b611f1a6020830184611799565b9392505050565b6000604082019050611f366000830185611bd4565b611f436020830184611bd4565b9392505050565b6000608082019050611f5f6000830187611bd4565b611f6c6020830186611bd4565b611f796040830185611bd4565b611f866060830184611bd4565b95945050505050565b6000819050602082019050919050565b6000819050602082019050919050565b600081519050919050565b600081519050919050565b600081519050919050565b6000602082019050919050565b6000602082019050919050565b600082825260208201905092915050565b600082825260208201905092915050565b600082825260208201905092915050565b600081905092915050565b600082825260208201905092915050565b600061204482612131565b915061204f83612131565b9250827fffffffffffffffffffffffffffffffffffffffffffffffffffffffffffffffff03821115612084576120836121fc565b5b828201905092915050565b600061209a82612131565b91506120a583612131565b9250817fffffffffffffffffffffffffffffffffffffffffffffffffffffffffffffffff04831182151516156120de576120dd6121fc565b5b828202905092915050565b60006120f482612111565b9050919050565b60008115159050919050565b6000819050919050565b600073ffffffffffffffffffffffffffffffffffffffff82169050919050565b6000819050919050565b60005b8381101561215957808201518184015260208101905061213e565b83811115612168576000848401525b50505050565b600061217982612131565b91507fffffffffffffffffffffffffffffffffffffffffffffffffffffffffffffffff8214156121ac576121ab6121fc565b5b600182019050919050565b6000819050919050565b6000819050919050565b60006121d682612131565b91506121e183612131565b9250826121f1576121f061222b565b5b828206905092915050565b7f4e487b7100000000000000000000000000000000000000000000000000000000600052601160045260246000fd5b7f4e487b7100000000000000000000000000000000000000000000000000000000600052601260045260246000fd5b7f4e487b7100000000000000000000000000000000000000000000000000000000600052603260045260246000fd5b7f4e487b7100000000000000000000000000000000000000000000000000000000600052604160045260246000fd5b600080fd5b6000601f19601f8301169050919050565b7f4c6f74746572792068617320616c7265616479206465636c617265642061207760008201527f696e6e6572000000000000000000000000000000000000000000000000000000602082015250565b7f5472616e73666572206661696c65640000000000000000000000000000000000600082015250565b7f4c6f74746572792074696d65206d75737420626520677265617465722074686160008201527f6e20300000000000000000000000000000000000000000000000000000000000602082015250565b7f546865726520686173206265656e206e6f2070617274696369706174696f6e2060008201527f696e2074686973206c6f74746572790000000000000000000000000000000000602082015250565b7f4e6f7420656e6f756768204c494e4b0000000000000000000000000000000000600082015250565b7f4c6f7474657279206973207374696c6c20616374697665000000000000000000600082015250565b7f56616c7565206d75737420626520657175616c20746f207469636b657420707260008201527f6963650000000000000000000000000000000000000000000000000000000000602082015250565b7f4c6f74746572792070617274696369706174696f6e20697320636c6f73656400600082015250565b7f4f6e6c792063616c6c61626c652062792061646d696e00000000000000000000600082015250565b7f4f6e6c7920565246436f6f7264696e61746f722063616e2066756c66696c6c00600082015250565b50565b7f5469636b6574207072696365206d75737420626520677265617465722074686160008201527f6e20300000000000000000000000000000000000000000000000000000000000602082015250565b61255b816120e9565b811461256657600080fd5b50565b612572816120fb565b811461257d57600080fd5b50565b61258981612107565b811461259457600080fd5b50565b6125a081612131565b81146125ab57600080fd5b5056fea2646970667358221220c6a7a4e56de0516e5f3c814633762442b9369bd5efcf0ff01b49683640cd20bd64736f6c63430008070033",
  "devdoc": {
    "kind": "dev",
    "methods": {},
    "version": 1
  },
  "userdoc": {
    "kind": "user",
    "methods": {},
    "version": 1
  },
  "storageLayout": {
    "storage": [
      {
        "astId": 79,
        "contract": "contracts/Lottery.sol:LotteryGame",
        "label": "nonces",
        "offset": 0,
        "slot": "0",
        "type": "t_mapping(t_bytes32,t_uint256)"
      },
      {
        "astId": 685,
        "contract": "contracts/Lottery.sol:LotteryGame",
        "label": "lotteryId",
        "offset": 0,
        "slot": "1",
        "type": "t_struct(Counter)271_storage"
      },
      {
        "astId": 690,
        "contract": "contracts/Lottery.sol:LotteryGame",
        "label": "lotteries",
        "offset": 0,
        "slot": "2",
        "type": "t_mapping(t_uint256,t_struct(Lottery)682_storage)"
      },
      {
        "astId": 694,
        "contract": "contracts/Lottery.sol:LotteryGame",
        "label": "lotteryRandomnessRequest",
        "offset": 0,
        "slot": "3",
        "type": "t_mapping(t_bytes32,t_uint256)"
      },
      {
        "astId": 700,
        "contract": "contracts/Lottery.sol:LotteryGame",
        "label": "ppplayer",
        "offset": 0,
        "slot": "4",
        "type": "t_mapping(t_uint256,t_mapping(t_address,t_uint256))"
      },
      {
        "astId": 704,
        "contract": "contracts/Lottery.sol:LotteryGame",
        "label": "playersCount",
        "offset": 0,
        "slot": "5",
        "type": "t_mapping(t_uint256,t_uint256)"
      },
      {
        "astId": 706,
        "contract": "contracts/Lottery.sol:LotteryGame",
        "label": "keyHash",
        "offset": 0,
        "slot": "6",
        "type": "t_bytes32"
      },
      {
        "astId": 708,
        "contract": "contracts/Lottery.sol:LotteryGame",
        "label": "fee",
        "offset": 0,
        "slot": "7",
        "type": "t_uint256"
      },
      {
        "astId": 710,
        "contract": "contracts/Lottery.sol:LotteryGame",
        "label": "admin",
        "offset": 0,
        "slot": "8",
        "type": "t_address"
      }
    ],
    "types": {
      "t_address": {
        "encoding": "inplace",
        "label": "address",
        "numberOfBytes": "20"
      },
      "t_array(t_address)dyn_storage": {
        "base": "t_address",
        "encoding": "dynamic_array",
        "label": "address[]",
        "numberOfBytes": "32"
      },
      "t_bool": {
        "encoding": "inplace",
        "label": "bool",
        "numberOfBytes": "1"
      },
      "t_bytes32": {
        "encoding": "inplace",
        "label": "bytes32",
        "numberOfBytes": "32"
      },
      "t_mapping(t_address,t_uint256)": {
        "encoding": "mapping",
        "key": "t_address",
        "label": "mapping(address => uint256)",
        "numberOfBytes": "32",
        "value": "t_uint256"
      },
      "t_mapping(t_bytes32,t_uint256)": {
        "encoding": "mapping",
        "key": "t_bytes32",
        "label": "mapping(bytes32 => uint256)",
        "numberOfBytes": "32",
        "value": "t_uint256"
      },
      "t_mapping(t_uint256,t_mapping(t_address,t_uint256))": {
        "encoding": "mapping",
        "key": "t_uint256",
        "label": "mapping(uint256 => mapping(address => uint256))",
        "numberOfBytes": "32",
        "value": "t_mapping(t_address,t_uint256)"
      },
      "t_mapping(t_uint256,t_struct(Lottery)682_storage)": {
        "encoding": "mapping",
        "key": "t_uint256",
        "label": "mapping(uint256 => struct LotteryGame.Lottery)",
        "numberOfBytes": "32",
        "value": "t_struct(Lottery)682_storage"
      },
      "t_mapping(t_uint256,t_uint256)": {
        "encoding": "mapping",
        "key": "t_uint256",
        "label": "mapping(uint256 => uint256)",
        "numberOfBytes": "32",
        "value": "t_uint256"
      },
      "t_struct(Counter)271_storage": {
        "encoding": "inplace",
        "label": "struct Counters.Counter",
        "members": [
          {
            "astId": 270,
            "contract": "contracts/Lottery.sol:LotteryGame",
            "label": "_value",
            "offset": 0,
            "slot": "0",
            "type": "t_uint256"
          }
        ],
        "numberOfBytes": "32"
      },
      "t_struct(Lottery)682_storage": {
        "encoding": "inplace",
        "label": "struct LotteryGame.Lottery",
        "members": [
          {
            "astId": 668,
            "contract": "contracts/Lottery.sol:LotteryGame",
            "label": "lotteryId",
            "offset": 0,
            "slot": "0",
            "type": "t_uint256"
          },
          {
            "astId": 671,
            "contract": "contracts/Lottery.sol:LotteryGame",
            "label": "participants",
            "offset": 0,
            "slot": "1",
            "type": "t_array(t_address)dyn_storage"
          },
          {
            "astId": 673,
            "contract": "contracts/Lottery.sol:LotteryGame",
            "label": "ticketPrice",
            "offset": 0,
            "slot": "2",
            "type": "t_uint256"
          },
          {
            "astId": 675,
            "contract": "contracts/Lottery.sol:LotteryGame",
            "label": "prize",
            "offset": 0,
            "slot": "3",
            "type": "t_uint256"
          },
          {
            "astId": 677,
            "contract": "contracts/Lottery.sol:LotteryGame",
            "label": "winner",
            "offset": 0,
            "slot": "4",
            "type": "t_address"
          },
          {
            "astId": 679,
            "contract": "contracts/Lottery.sol:LotteryGame",
            "label": "isFinished",
            "offset": 20,
            "slot": "4",
            "type": "t_bool"
          },
          {
            "astId": 681,
            "contract": "contracts/Lottery.sol:LotteryGame",
            "label": "endDate",
            "offset": 0,
            "slot": "5",
            "type": "t_uint256"
          }
        ],
        "numberOfBytes": "192"
      },
      "t_uint256": {
        "encoding": "inplace",
        "label": "uint256",
        "numberOfBytes": "32"
      }
    }
  }
}